{
  "_format": "hh-sol-artifact-1",
  "contractName": "Token",
  "sourceName": "contracts/Token.sol",
  "abi": [
    {
      "inputs": [
        {
          "internalType": "uint256",
          "name": "initialSupply",
          "type": "uint256"
        }
      ],
      "stateMutability": "nonpayable",
      "type": "constructor"
    },
    {
      "anonymous": false,
      "inputs": [
        {
          "indexed": true,
          "internalType": "address",
          "name": "_from",
          "type": "address"
        },
        {
          "indexed": true,
          "internalType": "address",
          "name": "_to",
          "type": "address"
        },
        {
          "indexed": false,
          "internalType": "uint256",
          "name": "_value",
          "type": "uint256"
        }
      ],
      "name": "Transfer",
      "type": "event"
    },
    {
      "inputs": [
        {
          "internalType": "address",
          "name": "account",
          "type": "address"
        }
      ],
      "name": "balanceOf",
      "outputs": [
        {
          "internalType": "uint256",
          "name": "",
          "type": "uint256"
        }
      ],
      "stateMutability": "view",
      "type": "function"
    },
    {
      "inputs": [],
      "name": "initialSupply",
      "outputs": [
        {
          "internalType": "uint256",
          "name": "",
          "type": "uint256"
        }
      ],
      "stateMutability": "view",
      "type": "function"
    },
    {
      "inputs": [],
      "name": "name",
      "outputs": [
        {
          "internalType": "string",
          "name": "",
          "type": "string"
        }
      ],
      "stateMutability": "view",
      "type": "function"
    },
    {
      "inputs": [],
      "name": "owner",
      "outputs": [
        {
          "internalType": "address",
          "name": "",
          "type": "address"
        }
      ],
      "stateMutability": "view",
      "type": "function"
    },
    {
      "inputs": [],
      "name": "symbol",
      "outputs": [
        {
          "internalType": "string",
          "name": "",
          "type": "string"
        }
      ],
      "stateMutability": "view",
      "type": "function"
    },
    {
      "inputs": [
        {
          "internalType": "address",
          "name": "to",
          "type": "address"
        },
        {
          "internalType": "uint256",
          "name": "amount",
          "type": "uint256"
        }
      ],
      "name": "transfer",
      "outputs": [],
      "stateMutability": "nonpayable",
      "type": "function"
    }
  ],
  "bytecode": "0x60806040526040518060400160405280601081526020017f4d79204861726468617420546f6b656e00000000000000000000000000000000815250600090816100489190610397565b506040518060400160405280600381526020017f4d485400000000000000000000000000000000000000000000000000000000008152506001908161008d9190610397565b5034801561009a57600080fd5b50604051610d31380380610d3183398181016040528101906100bc919061049a565b80600360003373ffffffffffffffffffffffffffffffffffffffff1673ffffffffffffffffffffffffffffffffffffffff1681526020019081526020016000208190555033600260006101000a81548173ffffffffffffffffffffffffffffffffffffffff021916908373ffffffffffffffffffffffffffffffffffffffff160217905550506104c7565b600081519050919050565b7f4e487b7100000000000000000000000000000000000000000000000000000000600052604160045260246000fd5b7f4e487b7100000000000000000000000000000000000000000000000000000000600052602260045260246000fd5b600060028204905060018216806101c857607f821691505b6020821081036101db576101da610181565b5b50919050565b60008190508160005260206000209050919050565b60006020601f8301049050919050565b600082821b905092915050565b6000600883026102437fffffffffffffffffffffffffffffffffffffffffffffffffffffffffffffffff82610206565b61024d8683610206565b95508019841693508086168417925050509392505050565b6000819050919050565b6000819050919050565b600061029461028f61028a84610265565b61026f565b610265565b9050919050565b6000819050919050565b6102ae83610279565b6102c26102ba8261029b565b848454610213565b825550505050565b600090565b6102d76102ca565b6102e28184846102a5565b505050565b5b81811015610306576102fb6000826102cf565b6001810190506102e8565b5050565b601f82111561034b5761031c816101e1565b610325846101f6565b81016020851015610334578190505b610348610340856101f6565b8301826102e7565b50505b505050565b600082821c905092915050565b600061036e60001984600802610350565b1980831691505092915050565b6000610387838361035d565b9150826002028217905092915050565b6103a082610147565b67ffffffffffffffff8111156103b9576103b8610152565b5b6103c382546101b0565b6103ce82828561030a565b600060209050601f83116001811461040157600084156103ef578287015190505b6103f9858261037b565b865550610461565b601f19841661040f866101e1565b60005b8281101561043757848901518255600182019150602085019450602081019050610412565b868310156104545784890151610450601f89168261035d565b8355505b6001600288020188555050505b505050505050565b600080fd5b61047781610265565b811461048257600080fd5b50565b6000815190506104948161046e565b92915050565b6000602082840312156104b0576104af610469565b5b60006104be84828501610485565b91505092915050565b61085b806104d66000396000f3fe608060405234801561001057600080fd5b50600436106100625760003560e01c806306fdde0314610067578063378dc3dc1461008557806370a08231146100a35780638da5cb5b146100d357806395d89b41146100f1578063a9059cbb1461010f575b600080fd5b61006f61012b565b60405161007c9190610546565b60405180910390f35b61008d6101b9565b60405161009a9190610581565b60405180910390f35b6100bd60048036038101906100b891906105ff565b610222565b6040516100ca9190610581565b60405180910390f35b6100db61026b565b6040516100e8919061063b565b60405180910390f35b6100f9610291565b6040516101069190610546565b60405180910390f35b61012960048036038101906101249190610682565b61031f565b005b60008054610138906106f1565b80601f0160208091040260200160405190810160405280929190818152602001828054610164906106f1565b80156101b15780601f10610186576101008083540402835291602001916101b1565b820191906000526020600020905b81548152906001019060200180831161019457829003601f168201915b505050505081565b600060036000600260009054906101000a900473ffffffffffffffffffffffffffffffffffffffff1673ffffffffffffffffffffffffffffffffffffffff1673ffffffffffffffffffffffffffffffffffffffff16815260200190815260200160002054905090565b6000600360008373ffffffffffffffffffffffffffffffffffffffff1673ffffffffffffffffffffffffffffffffffffffff168152602001908152602001600020549050919050565b600260009054906101000a900473ffffffffffffffffffffffffffffffffffffffff1681565b6001805461029e906106f1565b80601f01602080910402602001604051908101604052809291908181526020018280546102ca906106f1565b80156103175780601f106102ec57610100808354040283529160200191610317565b820191906000526020600020905b8154815290600101906020018083116102fa57829003601f168201915b505050505081565b80600360003373ffffffffffffffffffffffffffffffffffffffff1673ffffffffffffffffffffffffffffffffffffffff1681526020019081526020016000205410156103a1576040517f08c379a00000000000000000000000000000000000000000000000000000000081526004016103989061076e565b60405180910390fd5b80600360003373ffffffffffffffffffffffffffffffffffffffff1673ffffffffffffffffffffffffffffffffffffffff16815260200190815260200160002060008282546103f091906107bd565b9250508190555080600360008473ffffffffffffffffffffffffffffffffffffffff1673ffffffffffffffffffffffffffffffffffffffff168152602001908152602001600020600082825461044691906107f1565b925050819055508173ffffffffffffffffffffffffffffffffffffffff163373ffffffffffffffffffffffffffffffffffffffff167fddf252ad1be2c89b69c2b068fc378daa952ba7f163c4a11628f55a4df523b3ef836040516104aa9190610581565b60405180910390a35050565b600081519050919050565b600082825260208201905092915050565b60005b838110156104f05780820151818401526020810190506104d5565b60008484015250505050565b6000601f19601f8301169050919050565b6000610518826104b6565b61052281856104c1565b93506105328185602086016104d2565b61053b816104fc565b840191505092915050565b60006020820190508181036000830152610560818461050d565b905092915050565b6000819050919050565b61057b81610568565b82525050565b60006020820190506105966000830184610572565b92915050565b600080fd5b600073ffffffffffffffffffffffffffffffffffffffff82169050919050565b60006105cc826105a1565b9050919050565b6105dc816105c1565b81146105e757600080fd5b50565b6000813590506105f9816105d3565b92915050565b6000602082840312156106155761061461059c565b5b6000610623848285016105ea565b91505092915050565b610635816105c1565b82525050565b6000602082019050610650600083018461062c565b92915050565b61065f81610568565b811461066a57600080fd5b50565b60008135905061067c81610656565b92915050565b600080604083850312156106995761069861059c565b5b60006106a7858286016105ea565b92505060206106b88582860161066d565b9150509250929050565b7f4e487b7100000000000000000000000000000000000000000000000000000000600052602260045260246000fd5b6000600282049050600182168061070957607f821691505b60208210810361071c5761071b6106c2565b5b50919050565b7f4e6f7420656e6f75676820746f6b656e73000000000000000000000000000000600082015250565b60006107586011836104c1565b915061076382610722565b602082019050919050565b600060208201905081810360008301526107878161074b565b9050919050565b7f4e487b7100000000000000000000000000000000000000000000000000000000600052601160045260246000fd5b60006107c882610568565b91506107d383610568565b92508282039050818111156107eb576107ea61078e565b5b92915050565b60006107fc82610568565b915061080783610568565b925082820190508082111561081f5761081e61078e565b5b9291505056fea264697066735822122061a50e94254620073199e379a7550bb3fbbd3f7aab959ecb2a79826f33ce37cd64736f6c634300081c0033",
  "linkReferences": {},
  "deployedLinkReferences": {}
}